:20000000505FD1E1410424002600C45006BAA3F5B3A2F5B2A1F5B1A7F5FBB7A6F5FBB6A502
:20002000F5FBB5A4F5B47A0EDFBAB45035B55035B650356AB72EBFF8F2BF7A501A50BA2E2C
:20004000A04050462E87ABF612502C3950A150A1D5BB505FF7E150A1FA50D57B542E802C5B
:2000600000F0FD2DC0F1F5F1F51C5F2E8D504650502E8A40502C40102C005061BCD1E12D32
:200080002E80EAF61A822C7FF02DE150A12DABF6EAF41295E1F650D51A8BD38EF550A1D190
:2000A000E1007DA100007CA1CC2C60B4F0BEA48EBEF78DBD7CAEC0A750A9AE8FB7F78DB681
:2000C00050A9AE86B6F78DB550A9AE85B5507550EA1CCD8FBFAEF6BEAFF6BFC0507550EA68
:2000E0001CDCF1AFF5BFAEF5BEC0F31AF56F8E1AFE1CA841008EBEF51264AEF61C61AF3BB5
:00000001FF
