:200000002EDE504252BA12048F1C042E81504652C0500B2EBA50502E82505052BABE1428E1
:2000200053171A042A3042EE2A175075122841170052891C4A1A50A7FD25E5F1ED971C4AE2
:20004000505FA7E5A4E6A5E741572EA55042416CEC1C572EA25042A5F5D0F6B5D8B6505F92
:20006000E953C07660146CF51C0443B60020002A6C5310AF1A8950E3532F2AE65338BEBFE8
:20008000BE532F50CD532F43A9FB4300001A911CD350CD1A992AA642EE43822AB051E024F9
:2000A00005260043A9000052891AB0505FEC1CF900A7FD25E9B76525E9B66525E9B500F129
:2000C000A770CBF4B6F4B6B5F4B5FA83B3A286B2A185B1D5F18FB0D990149BA0537A4200DF
:2000E000505FECF643FD0053C58899F39081F353F42EA15042280842082EBF504252D43BFD
:00000001FF
